S01700004763634170706C69636174696F6E322E737265635A
S11300000C942A000C9447000C9447000C9447006D
S11300100C9447000C9447000C9447000C94470040
S11300200C9447000C9447000C9447000C94470030
S11300300C9447000C9447000C9447000C94470020
S11300400C9447000C9447000C9447000C94470010
S11300500C94470011241FBECFE5D8E0DEBFCDBF0E
S113006010E0A0E6B0E0ECE9F2E002C005900D92E9
S1130070A238B107D9F720E0A2E8B0E001C01D9290
S1130080A238B207E1F70E940B010C944C010C94C6
S11300900000823049F0833061F0813079F480EFE0
S11300A08ABB8FE08BBB089580EF84BB8FE085BB58
S11300B0089580EF81BB8FE082BB089580EF8ABBF7
S11300C08FE08BBB08958823D1F08FEE8BBB81E04A
S11300D091E005C029B32923B9F0990F8F5F9930B6
S11300E0C8F380E008953BBB91E005C029B3292300
S11300F059F0990F8F5F9930C8F3330F02C081E034
S11301003FEE313780F780E0089598B3926098BB52
S113011098B3282F207F9F70922B98BB98B39D7F14
S113012098BB000098B3926098BB20E1829FC00105
S1130130112498B39F70892B88BB88B38D7F88BBAB
S113014080E18A95F1F700C0089583EF87BB18BA60
S113015088B38E7F88BB88E20E94850088B3816063
S113016088BB88B3816088BB86E00E94850088B321
S1130170816088BB88B38E7F88BB8CE00E94850039
S113018088B3816088BB089588B38E7F88BB81E083
S11301900E94850088B3816088BB83ED90E301975A
S11301A0F1F700C00000089598B39E7F98BB90E4D7
S11301B0899F600D1124862F80680E94850088B372
S11301C0816088BB81EE94E00197F1F700C00000E4
S11301D008950F931F93CF93DF938C01D62F60E084
S11301E080E00E94D400C0E00FC0C03121F460E080
S11301F081E00E94D400F801EC0FF11DC7FDFA95CF
S113020080810E948500CF5FCD177CF3DF91CF9171
S11302101F910F910895CF93DF93CDB7DEB7A297C7
S11302200FB6F894DEBF0FBECDBF8FEF87BB81B38F
S1130230836081BB82E2E0E6F0E0DE01119601908A
S11302400D928A95E1F70E94A50081E00E94490081
S113025080E00E94630090E0880F991F62E021E033
S113026030E02C0F3D1F820F931F0E94E9003FE9ED
S113027086E891E0315080409040E1F700C00000F2
S11302800E94C4002FE936E881E0215030408040CC
S10F0290E1F700C00000DCCFF894FFCFC1
S113029C20302031203220332034203520362037B2
S11302AC2038203931303131313231333134313538
S10502BC3136D5
S9030000FC
