S01300006B6C617769617475726B612E7372656371
S11300000C942A000C943C000C943C000C943C008E
S11300100C943C000C943C000C943C000C943C006C
S11300200C943C000C943C000C943C000C943C005C
S11300300C943C000C943C000C943C000C943C004C
S11300400C943C000C943C000C943C000C943C003C
S11300500C943C0011241FBECFE5D8E0DEBFCDBF19
S113006020E0A0E6B0E001C01D92A036B207E1F79F
S11300700E9455000C945E000C94000080EF8ABB33
S11300808FE08BBB089581E03FEE0BC03BBB91E05A
S113009005C029B3292341F0990F8F5F9930C8F324
S11300A0330F313798F780E008958FEF87BB0E94B4
S11300B03E0018BA0E94430088BBFCCFF894FFCFDF
S9030000FC
